{
  "contractName": "Election",
  "abi": [
    {
      "inputs": [],
      "stateMutability": "nonpayable",
      "type": "constructor"
    },
    {
      "anonymous": false,
      "inputs": [
        {
          "indexed": false,
          "internalType": "uint256",
          "name": "id",
          "type": "uint256"
        },
        {
          "indexed": false,
          "internalType": "string",
          "name": "name",
          "type": "string"
        },
        {
          "indexed": false,
          "internalType": "uint256",
          "name": "voteCount",
          "type": "uint256"
        }
      ],
      "name": "electionUpdates",
      "type": "event"
    },
    {
      "inputs": [],
      "name": "candidateCount",
      "outputs": [
        {
          "internalType": "uint256",
          "name": "",
          "type": "uint256"
        }
      ],
      "stateMutability": "view",
      "type": "function",
      "constant": true
    },
    {
      "inputs": [
        {
          "internalType": "uint256",
          "name": "",
          "type": "uint256"
        }
      ],
      "name": "candidates",
      "outputs": [
        {
          "internalType": "uint256",
          "name": "id",
          "type": "uint256"
        },
        {
          "internalType": "string",
          "name": "name",
          "type": "string"
        },
        {
          "internalType": "uint256",
          "name": "voteCount",
          "type": "uint256"
        }
      ],
      "stateMutability": "view",
      "type": "function",
      "constant": true
    },
    {
      "inputs": [
        {
          "internalType": "address",
          "name": "",
          "type": "address"
        }
      ],
      "name": "votedOrNot",
      "outputs": [
        {
          "internalType": "bool",
          "name": "",
          "type": "bool"
        }
      ],
      "stateMutability": "view",
      "type": "function",
      "constant": true
    },
    {
      "inputs": [
        {
          "internalType": "uint256",
          "name": "_id",
          "type": "uint256"
        }
      ],
      "name": "Vote",
      "outputs": [],
      "stateMutability": "nonpayable",
      "type": "function"
    }
  ],
  "bytecode": "0x60806040523480156200001157600080fd5b50620000586040518060400160405280600d81526020017f446f6e616c64205472756d706800000000000000000000000000000000000000815250620000a460201b60201c565b6200009e6040518060400160405280600c81526020017f42617261636b204f62616d610000000000000000000000000000000000000000815250620000a460201b60201c565b620002c4565b600080815480929190620000b89062000218565b919050555060405180606001604052806000548152602001828152602001600081525060016000805481526020019081526020016000206000820151816000015560208201518160010190805190602001906200011792919062000128565b506040820151816002015590505050565b8280546200013690620001e2565b90600052602060002090601f0160209004810192826200015a5760008555620001a6565b82601f106200017557805160ff1916838001178555620001a6565b82800160010185558215620001a6579182015b82811115620001a557825182559160200191906001019062000188565b5b509050620001b59190620001b9565b5090565b5b80821115620001d4576000816000905550600101620001ba565b5090565b6000819050919050565b60006002820490506001821680620001fb57607f821691505b6020821081141562000212576200021162000295565b5b50919050565b60006200022582620001d8565b91507fffffffffffffffffffffffffffffffffffffffffffffffffffffffffffffffff8214156200025b576200025a62000266565b5b600182019050919050565b7f4e487b7100000000000000000000000000000000000000000000000000000000600052601160045260246000fd5b7f4e487b7100000000000000000000000000000000000000000000000000000000600052602260045260246000fd5b61087080620002d46000396000f3fe608060405234801561001057600080fd5b506004361061004c5760003560e01c80633477ee2e14610051578063a9a981a314610083578063ca020d14146100a1578063dcd6a5cd146100d1575b600080fd5b61006b600480360381019061006691906103ec565b6100ed565b60405161007a939291906105a8565b60405180910390f35b61008b61019f565b604051610098919061058d565b60405180910390f35b6100bb60048036038101906100b691906103c3565b6101a5565b6040516100c89190610532565b60405180910390f35b6100eb60048036038101906100e691906103ec565b6101c5565b005b6001602052806000526040600020600091509050806000015490806001018054610116906106d0565b80601f0160208091040260200160405190810160405280929190818152602001828054610142906106d0565b801561018f5780601f106101645761010080835404028352916020019161018f565b820191906000526020600020905b81548152906001019060200180831161017257829003601f168201915b5050505050908060020154905083565b60005481565b60026020528060005260406000206000915054906101000a900460ff1681565b600260003373ffffffffffffffffffffffffffffffffffffffff1673ffffffffffffffffffffffffffffffffffffffff16815260200190815260200160002060009054906101000a900460ff1615610252576040517f08c379a00000000000000000000000000000000000000000000000000000000081526004016102499061056d565b60405180910390fd5b6000600160008381526020019081526020016000206000015414156102ac576040517f08c379a00000000000000000000000000000000000000000000000000000000081526004016102a39061054d565b60405180910390fd5b6001600082815260200190815260200160002060020160008154809291906102d390610702565b91905055506001600260003373ffffffffffffffffffffffffffffffffffffffff1673ffffffffffffffffffffffffffffffffffffffff16815260200190815260200160002060006101000a81548160ff0219169083151502179055507fbd07b1dc4449defbe8ea446fb83e073dab93e072768f8c5ef3d3f944c36724978160016000848152602001908152602001600020600101600160008581526020019081526020016000206002015460405161038e939291906105e6565b60405180910390a150565b6000813590506103a88161080c565b92915050565b6000813590506103bd81610823565b92915050565b6000602082840312156103d557600080fd5b60006103e384828501610399565b91505092915050565b6000602082840312156103fe57600080fd5b600061040c848285016103ae565b91505092915050565b61041e81610667565b82525050565b600061042f82610639565b6104398185610644565b935061044981856020860161069d565b610452816107a9565b840191505092915050565b6000815461046a816106d0565b6104748186610644565b9450600182166000811461048f57600181146104a1576104d4565b60ff19831686526020860193506104d4565b6104aa85610624565b60005b838110156104cc578154818901526001820191506020810190506104ad565b808801955050505b50505092915050565b60006104ea601583610644565b91506104f5826107ba565b602082019050919050565b600061050d601f83610644565b9150610518826107e3565b602082019050919050565b61052c81610693565b82525050565b60006020820190506105476000830184610415565b92915050565b60006020820190508181036000830152610566816104dd565b9050919050565b6000602082019050818103600083015261058681610500565b9050919050565b60006020820190506105a26000830184610523565b92915050565b60006060820190506105bd6000830186610523565b81810360208301526105cf8185610424565b90506105de6040830184610523565b949350505050565b60006060820190506105fb6000830186610523565b818103602083015261060d818561045d565b905061061c6040830184610523565b949350505050565b60008190508160005260206000209050919050565b600081519050919050565b600082825260208201905092915050565b600061066082610673565b9050919050565b60008115159050919050565b600073ffffffffffffffffffffffffffffffffffffffff82169050919050565b6000819050919050565b60005b838110156106bb5780820151818401526020810190506106a0565b838111156106ca576000848401525b50505050565b600060028204905060018216806106e857607f821691505b602082108114156106fc576106fb61077a565b5b50919050565b600061070d82610693565b91507fffffffffffffffffffffffffffffffffffffffffffffffffffffffffffffffff8214156107405761073f61074b565b5b600182019050919050565b7f4e487b7100000000000000000000000000000000000000000000000000000000600052601160045260246000fd5b7f4e487b7100000000000000000000000000000000000000000000000000000000600052602260045260246000fd5b6000601f19601f8301169050919050565b7f74686520696420646f6573206e6f742065786973740000000000000000000000600082015250565b7f796f75206861766520766f74656420666f722074686520456c656374696f6e00600082015250565b61081581610655565b811461082057600080fd5b50565b61082c81610693565b811461083757600080fd5b5056fea26469706673582212203edd7dd868e45241d19e1065c9d1725711661b53b53979841632b87fdd5d120364736f6c63430008040033",
  "immutableReferences": {},
  "source": "pragma solidity ^0.8.4;\r\n\r\ncontract Election{\r\n    \r\n    struct Candidate{\r\n        uint id;\r\n        string name;\r\n        uint voteCount;\r\n    }\r\n    \r\n    uint public candidateCount ;\r\n    \r\n    mapping(uint =>Candidate) public candidates;\r\n    \r\n    mapping(address=>bool) public votedOrNot;\r\n    \r\n    constructor(){\r\n        // code that we want to initiate\r\n        addCandidate(\"Donald Trumph\");\r\n        addCandidate(\"Barack Obama\");\r\n        //\r\n    }\r\n    \r\n    \r\n    function addCandidate(string memory name) private {\r\n        candidateCount++;\r\n        candidates[candidateCount] = Candidate(candidateCount,name,0);\r\n    }\r\n    event electionUpdates(uint id,\r\n        string name,\r\n        uint voteCount);\r\n        \r\n        \r\n        \r\n        \r\n    function Vote(uint _id) public {\r\n        // we need to check if the person has not voted again \r\n        // valid id \r\n        // if(votedOrNot[msg.sender]){\r\n            \r\n        // }\r\n        \r\n        // instead of if and else we use the require keyword in solidity\r\n        \r\n        // check if previously voted\r\n        require(!votedOrNot[msg.sender],\"you have voted for the Election\");\r\n        \r\n        // check if id is valid\r\n        \r\n        require(candidates[_id].id!=0,\"the id does not exist\");\r\n        \r\n        \r\n        // increase the votecount and change bool value;\r\n        \r\n        candidates[_id].voteCount++;\r\n        votedOrNot[msg.sender] =true; \r\n        \r\n        //to push data from smart contract to the ui\r\n        emit electionUpdates(_id,candidates[_id].name,candidates[_id].voteCount);    \r\n        \r\n        \r\n    }\r\n}",
  "sourcePath": "F:/CODING/BLOCKCHAIN/Elections_dapp/contracts/Election.sol",
  "compiler": {
    "name": "solc",
    "version": "0.8.4+commit.c7e474f2.Emscripten.clang"
  },
  "schemaVersion": "3.4.1",
  "updatedAt": "2021-07-21T12:43:57.834Z",
  "networkType": "ethereum",
  "devdoc": {
    "kind": "dev",
    "methods": {},
    "version": 1
  },
  "userdoc": {
    "kind": "user",
    "methods": {},
    "version": 1
  }
}